{
  "_format": "hh-sol-artifact-1",
  "contractName": "RentalAgreement",
  "sourceName": "contracts/RentalAgreement.sol",
  "abi": [
    {
      "inputs": [
        {
          "internalType": "address",
          "name": "_tenant",
          "type": "address"
        },
        {
          "internalType": "uint256",
          "name": "_rentAmount",
          "type": "uint256"
        },
        {
          "internalType": "uint256",
          "name": "_depositAmount",
          "type": "uint256"
        },
        {
          "internalType": "uint256",
          "name": "_leaseStart",
          "type": "uint256"
        },
        {
          "internalType": "uint256",
          "name": "_leaseEnd",
          "type": "uint256"
        }
      ],
      "stateMutability": "nonpayable",
      "type": "constructor"
    },
    {
      "anonymous": false,
      "inputs": [
        {
          "indexed": false,
          "internalType": "address",
          "name": "tenant",
          "type": "address"
        }
      ],
      "name": "AgreementSigned",
      "type": "event"
    },
    {
      "anonymous": false,
      "inputs": [
        {
          "indexed": false,
          "internalType": "address",
          "name": "landlord",
          "type": "address"
        }
      ],
      "name": "AgreementTerminated",
      "type": "event"
    },
    {
      "anonymous": false,
      "inputs": [
        {
          "indexed": false,
          "internalType": "address",
          "name": "tenant",
          "type": "address"
        },
        {
          "indexed": false,
          "internalType": "uint256",
          "name": "amount",
          "type": "uint256"
        }
      ],
      "name": "DepositPaid",
      "type": "event"
    },
    {
      "anonymous": false,
      "inputs": [
        {
          "indexed": false,
          "internalType": "address",
          "name": "tenant",
          "type": "address"
        },
        {
          "indexed": false,
          "internalType": "uint256",
          "name": "amount",
          "type": "uint256"
        }
      ],
      "name": "RentPaid",
      "type": "event"
    },
    {
      "inputs": [],
      "name": "depositAmount",
      "outputs": [
        {
          "internalType": "uint256",
          "name": "",
          "type": "uint256"
        }
      ],
      "stateMutability": "view",
      "type": "function"
    },
    {
      "inputs": [],
      "name": "isDepositPaid",
      "outputs": [
        {
          "internalType": "bool",
          "name": "",
          "type": "bool"
        }
      ],
      "stateMutability": "view",
      "type": "function"
    },
    {
      "inputs": [],
      "name": "isSigned",
      "outputs": [
        {
          "internalType": "bool",
          "name": "",
          "type": "bool"
        }
      ],
      "stateMutability": "view",
      "type": "function"
    },
    {
      "inputs": [],
      "name": "isTerminated",
      "outputs": [
        {
          "internalType": "bool",
          "name": "",
          "type": "bool"
        }
      ],
      "stateMutability": "view",
      "type": "function"
    },
    {
      "inputs": [],
      "name": "landlord",
      "outputs": [
        {
          "internalType": "address",
          "name": "",
          "type": "address"
        }
      ],
      "stateMutability": "view",
      "type": "function"
    },
    {
      "inputs": [],
      "name": "leaseEnd",
      "outputs": [
        {
          "internalType": "uint256",
          "name": "",
          "type": "uint256"
        }
      ],
      "stateMutability": "view",
      "type": "function"
    },
    {
      "inputs": [],
      "name": "leaseStart",
      "outputs": [
        {
          "internalType": "uint256",
          "name": "",
          "type": "uint256"
        }
      ],
      "stateMutability": "view",
      "type": "function"
    },
    {
      "inputs": [],
      "name": "payDeposit",
      "outputs": [],
      "stateMutability": "payable",
      "type": "function"
    },
    {
      "inputs": [],
      "name": "payRent",
      "outputs": [],
      "stateMutability": "payable",
      "type": "function"
    },
    {
      "inputs": [],
      "name": "refundDeposit",
      "outputs": [],
      "stateMutability": "nonpayable",
      "type": "function"
    },
    {
      "inputs": [],
      "name": "rentAmount",
      "outputs": [
        {
          "internalType": "uint256",
          "name": "",
          "type": "uint256"
        }
      ],
      "stateMutability": "view",
      "type": "function"
    },
    {
      "inputs": [],
      "name": "signAgreement",
      "outputs": [],
      "stateMutability": "nonpayable",
      "type": "function"
    },
    {
      "inputs": [],
      "name": "tenant",
      "outputs": [
        {
          "internalType": "address",
          "name": "",
          "type": "address"
        }
      ],
      "stateMutability": "view",
      "type": "function"
    },
    {
      "inputs": [],
      "name": "terminateAgreement",
      "outputs": [],
      "stateMutability": "nonpayable",
      "type": "function"
    }
  ],
  "bytecode": "0x608060405234801561001057600080fd5b506040516116b73803806116b783398181016040528101906100329190610205565b818111610074576040517f08c379a000000000000000000000000000000000000000000000000000000000815260040161006b906102dd565b60405180910390fd5b336000806101000a81548173ffffffffffffffffffffffffffffffffffffffff021916908373ffffffffffffffffffffffffffffffffffffffff16021790555084600160006101000a81548173ffffffffffffffffffffffffffffffffffffffff021916908373ffffffffffffffffffffffffffffffffffffffff160217905550836002819055508260038190555081600481905550806005819055506000600660006101000a81548160ff0219169083151502179055506000600660016101000a81548160ff0219169083151502179055506000600660026101000a81548160ff02191690831515021790555050505050506102fd565b600080fd5b600073ffffffffffffffffffffffffffffffffffffffff82169050919050565b600061019c82610171565b9050919050565b6101ac81610191565b81146101b757600080fd5b50565b6000815190506101c9816101a3565b92915050565b6000819050919050565b6101e2816101cf565b81146101ed57600080fd5b50565b6000815190506101ff816101d9565b92915050565b600080600080600060a086880312156102215761022061016c565b5b600061022f888289016101ba565b9550506020610240888289016101f0565b9450506040610251888289016101f0565b9350506060610262888289016101f0565b9250506080610273888289016101f0565b9150509295509295909350565b600082825260208201905092915050565b7f4c6561736520656e64206d757374206265206166746572207374617274000000600082015250565b60006102c7601d83610280565b91506102d282610291565b602082019050919050565b600060208201905081810360008301526102f6816102ba565b9050919050565b6113ab8061030c6000396000f3fe6080604052600436106100dd5760003560e01c8063c939329b1161007f578063dc1997ea11610059578063dc1997ea14610226578063e66a6b2214610251578063efc5eb8f1461027c578063f8ef1e1314610293576100dd565b8063c939329b146101b9578063d1cc9976146101d0578063da83ee13146101fb576100dd565b80635c274b86116100bb5780635c274b861461014f57806387822b6214610159578063a709c4fe14610184578063adf077911461018e576100dd565b80630cc63ea4146100e2578063419759f51461010d5780634200dd7114610138575b600080fd5b3480156100ee57600080fd5b506100f76102be565b6040516101049190610d58565b60405180910390f35b34801561011957600080fd5b506101226102c4565b60405161012f9190610d58565b60405180910390f35b34801561014457600080fd5b5061014d6102ca565b005b610157610441565b005b34801561016557600080fd5b5061016e6106c1565b60405161017b9190610d58565b60405180910390f35b61018c6106c7565b005b34801561019a57600080fd5b506101a361097e565b6040516101b09190610db4565b60405180910390f35b3480156101c557600080fd5b506101ce6109a4565b005b3480156101dc57600080fd5b506101e5610b28565b6040516101f29190610dea565b60405180910390f35b34801561020757600080fd5b50610210610b3b565b60405161021d9190610dea565b60405180910390f35b34801561023257600080fd5b5061023b610b4e565b6040516102489190610db4565b60405180910390f35b34801561025d57600080fd5b50610266610b72565b6040516102739190610dea565b60405180910390f35b34801561028857600080fd5b50610291610b85565b005b34801561029f57600080fd5b506102a8610d39565b6040516102b59190610d58565b60405180910390f35b60055481565b60035481565b60008054906101000a900473ffffffffffffffffffffffffffffffffffffffff1673ffffffffffffffffffffffffffffffffffffffff163373ffffffffffffffffffffffffffffffffffffffff1614610358576040517f08c379a000000000000000000000000000000000000000000000000000000000815260040161034f90610e62565b60405180910390fd5b600660029054906101000a900460ff16156103a8576040517f08c379a000000000000000000000000000000000000000000000000000000000815260040161039f90610ece565b60405180910390fd5b6005544210156103ed576040517f08c379a00000000000000000000000000000000000000000000000000000000081526004016103e490610f3a565b60405180910390fd5b6001600660026101000a81548160ff0219169083151502179055507f0cb7f2c80cbc4263079ffcaa0cdbf888607cbdce2c24ff4e4da6b62cbb7e39c2336040516104379190610db4565b60405180910390a1565b600160009054906101000a900473ffffffffffffffffffffffffffffffffffffffff1673ffffffffffffffffffffffffffffffffffffffff163373ffffffffffffffffffffffffffffffffffffffff16146104d1576040517f08c379a00000000000000000000000000000000000000000000000000000000081526004016104c890610fa6565b60405180910390fd5b600660029054906101000a900460ff1615610521576040517f08c379a000000000000000000000000000000000000000000000000000000000815260040161051890610ece565b60405180910390fd5b600660009054906101000a900460ff16610570576040517f08c379a000000000000000000000000000000000000000000000000000000000815260040161056790611012565b60405180910390fd5b600660019054906101000a900460ff16156105c0576040517f08c379a00000000000000000000000000000000000000000000000000000000081526004016105b79061107e565b60405180910390fd5b6003543414610604576040517f08c379a00000000000000000000000000000000000000000000000000000000081526004016105fb906110ea565b60405180910390fd5b6001600660016101000a81548160ff02191690831515021790555060008054906101000a900473ffffffffffffffffffffffffffffffffffffffff1673ffffffffffffffffffffffffffffffffffffffff166108fc349081150290604051600060405180830381858888f19350505050158015610685573d6000803e3d6000fd5b507ff1953715a33b9e021c0f2cf12911e8ac25fdb177bf6fc92d1331ae05201fe9f633346040516106b792919061110a565b60405180910390a1565b60045481565b600160009054906101000a900473ffffffffffffffffffffffffffffffffffffffff1673ffffffffffffffffffffffffffffffffffffffff163373ffffffffffffffffffffffffffffffffffffffff1614610757576040517f08c379a000000000000000000000000000000000000000000000000000000000815260040161074e90610fa6565b60405180910390fd5b600660029054906101000a900460ff16156107a7576040517f08c379a000000000000000000000000000000000000000000000000000000000815260040161079e90610ece565b60405180910390fd5b600660009054906101000a900460ff166107f6576040517f08c379a00000000000000000000000000000000000000000000000000000000081526004016107ed90611012565b60405180910390fd5b600660019054906101000a900460ff16610845576040517f08c379a000000000000000000000000000000000000000000000000000000000815260040161083c9061117f565b60405180910390fd5b600454421015801561085957506005544211155b610898576040517f08c379a000000000000000000000000000000000000000000000000000000000815260040161088f90611211565b60405180910390fd5b60025434146108dc576040517f08c379a00000000000000000000000000000000000000000000000000000000081526004016108d39061127d565b60405180910390fd5b60008054906101000a900473ffffffffffffffffffffffffffffffffffffffff1673ffffffffffffffffffffffffffffffffffffffff166108fc349081150290604051600060405180830381858888f19350505050158015610942573d6000803e3d6000fd5b507f03b5033869479e8a98af42b272f05933f60489fe9fb43d63e11a6c31f3fa7474333460405161097492919061110a565b60405180910390a1565b600160009054906101000a900473ffffffffffffffffffffffffffffffffffffffff1681565b600160009054906101000a900473ffffffffffffffffffffffffffffffffffffffff1673ffffffffffffffffffffffffffffffffffffffff163373ffffffffffffffffffffffffffffffffffffffff1614610a34576040517f08c379a0000000000000000000000000000000000000000000000000000000008152600401610a2b90610fa6565b60405180910390fd5b600660029054906101000a900460ff1615610a84576040517f08c379a0000000000000000000000000000000000000000000000000000000008152600401610a7b90610ece565b60405180910390fd5b600660009054906101000a900460ff1615610ad4576040517f08c379a0000000000000000000000000000000000000000000000000000000008152600401610acb906112e9565b60405180910390fd5b6001600660006101000a81548160ff0219169083151502179055507f5cca47fc45be2c2c68100afd7cd2431116c0c535c159e4f6c7e63934cf9f7aad33604051610b1e9190610db4565b60405180910390a1565b600660029054906101000a900460ff1681565b600660019054906101000a900460ff1681565b60008054906101000a900473ffffffffffffffffffffffffffffffffffffffff1681565b600660009054906101000a900460ff1681565b60008054906101000a900473ffffffffffffffffffffffffffffffffffffffff1673ffffffffffffffffffffffffffffffffffffffff163373ffffffffffffffffffffffffffffffffffffffff1614610c13576040517f08c379a0000000000000000000000000000000000000000000000000000000008152600401610c0a90610e62565b60405180910390fd5b600660029054906101000a900460ff16610c62576040517f08c379a0000000000000000000000000000000000000000000000000000000008152600401610c5990611355565b60405180910390fd5b600660019054906101000a900460ff16610cb1576040517f08c379a0000000000000000000000000000000000000000000000000000000008152600401610ca89061117f565b60405180910390fd5b6000600660016101000a81548160ff021916908315150217905550600160009054906101000a900473ffffffffffffffffffffffffffffffffffffffff1673ffffffffffffffffffffffffffffffffffffffff166108fc6003549081150290604051600060405180830381858888f19350505050158015610d36573d6000803e3d6000fd5b50565b60025481565b6000819050919050565b610d5281610d3f565b82525050565b6000602082019050610d6d6000830184610d49565b92915050565b600073ffffffffffffffffffffffffffffffffffffffff82169050919050565b6000610d9e82610d73565b9050919050565b610dae81610d93565b82525050565b6000602082019050610dc96000830184610da5565b92915050565b60008115159050919050565b610de481610dcf565b82525050565b6000602082019050610dff6000830184610ddb565b92915050565b600082825260208201905092915050565b7f4f6e6c79206c616e646c6f72642063616e2063616c6c20746869730000000000600082015250565b6000610e4c601b83610e05565b9150610e5782610e16565b602082019050919050565b60006020820190508181036000830152610e7b81610e3f565b9050919050565b7f41677265656d656e74207465726d696e61746564000000000000000000000000600082015250565b6000610eb8601483610e05565b9150610ec382610e82565b602082019050919050565b60006020820190508181036000830152610ee781610eab565b9050919050565b7f4c6561736520706572696f64206e6f7420656e64656400000000000000000000600082015250565b6000610f24601683610e05565b9150610f2f82610eee565b602082019050919050565b60006020820190508181036000830152610f5381610f17565b9050919050565b7f4f6e6c792074656e616e742063616e2063616c6c207468697300000000000000600082015250565b6000610f90601983610e05565b9150610f9b82610f5a565b602082019050919050565b60006020820190508181036000830152610fbf81610f83565b9050919050565b7f41677265656d656e74206e6f74207369676e6564207965740000000000000000600082015250565b6000610ffc601883610e05565b915061100782610fc6565b602082019050919050565b6000602082019050818103600083015261102b81610fef565b9050919050565b7f4465706f73697420616c72656164792070616964000000000000000000000000600082015250565b6000611068601483610e05565b915061107382611032565b602082019050919050565b600060208201905081810360008301526110978161105b565b9050919050565b7f496e636f7272656374206465706f73697420616d6f756e740000000000000000600082015250565b60006110d4601883610e05565b91506110df8261109e565b602082019050919050565b60006020820190508181036000830152611103816110c7565b9050919050565b600060408201905061111f6000830185610da5565b61112c6020830184610d49565b9392505050565b7f4465706f736974206e6f74207061696400000000000000000000000000000000600082015250565b6000611169601083610e05565b915061117482611133565b602082019050919050565b600060208201905081810360008301526111988161115c565b9050919050565b7f52656e74207061796d656e74206f757473696465206c6561736520706572696f60008201527f6400000000000000000000000000000000000000000000000000000000000000602082015250565b60006111fb602183610e05565b91506112068261119f565b604082019050919050565b6000602082019050818103600083015261122a816111ee565b9050919050565b7f496e636f72726563742072656e7420616d6f756e740000000000000000000000600082015250565b6000611267601583610e05565b915061127282611231565b602082019050919050565b600060208201905081810360008301526112968161125a565b9050919050565b7f41677265656d656e7420616c7265616479207369676e65640000000000000000600082015250565b60006112d3601883610e05565b91506112de8261129d565b602082019050919050565b60006020820190508181036000830152611302816112c6565b9050919050565b7f41677265656d656e74206e6f74207465726d696e617465640000000000000000600082015250565b600061133f601883610e05565b915061134a82611309565b602082019050919050565b6000602082019050818103600083015261136e81611332565b905091905056fea2646970667358221220b6015c85ad4c9e00b7fa416e641940cb0484f8881d871119e68a5dc074f7cc2264736f6c634300081c0033",
  "linkReferences": {},
  "deployedLinkReferences": {}
}